:10058C004F7574204F662052616E67652E2E2E00BB
:10045200780C7C007D007BFF7A05798C7E007F1012
:100462001203D7E4F50BD2B4758905F58AF58B1220
:10047200053BD28C7F917E0012051BAF8AAD07AF80
:100482008CEFFEF508EDF50975284875297A752A6D
:1004920020752B20E50B6401705BAF097C037DE8BE
:1004A2001203FD8E088F0974412509F509E4350808
:1004B200F508D3E509947DE50894004029E4F50A9E
:1004C200740C250AF8E6FF12055B050AE50AC394D7
:1004D2001040EDE4F50AE50AC3941050957F10121E
:1004E200057C050A80F0E4F50B75284B75294875E3
:1004F2002A7A752B20AF09AE08120003E4F58AF5BB
:100502008C208D03020474750B01C28CC28D02040F
:010512007474
:08051300C2A1D2A27F017E000B
:10051B00E4FDFCC3ED9FEC9E5015E4FBFA0BBB0016
:0F052B00010ABA04F8BBFBF50DBD00010C80E41A
:01053A00229E
:10053B007F3812057C7F0C12057C7F0112057C7FB6
:09054B008012057C7F0602057C8C
:10057C008F2712056B852790C2A0120513C2A222E9
:0705540074282526F8E6FFDC
:10055B008F2712056B852790D2A0120513C2A222FA
:10056B00D297C2A0D2A1C2A2120517D2A22097F68F
:01057B00225D
:04000300AB07AA0697
:100007007C007D0A1203FD8F828E83AE02AF037CD4
:10001700007D0A1203FDED2430F51DE43CF51C7C40
:10002700007D0AAF82AE831203FDED2430F51FE495
:100037003CF51EAE83AF827C007D0A1203FDAB0741
:10004700AA067C007D0A1203FDED2430F521E43C6D
:10005700F520AE02AF037C007D0A1203FDAB07AAB1
:10006700067C007D0A1203FDED2430F523E43CF500
:1000770022AE02AF037C007D0A1203FDEF2430F5A8
:1000870025E43EF524E5236430452270047F018092
:10009700027F00E5256430452470047E0180027EDE
:1000A70000EE5FFFE5216430452070047E01800289
:1000B7007E00EE5FFFE51F6430451E70047E018001
:1000C700027E00EE5F6041AF1D12055B7F201205C7
:1000D7005BE4F5261205540526C3E526648094845F
:1000E70040F2E4F5267F2012055B0526C3E526646A
:1000F70080948B40F0E4F5267F1012057C0526C31B
:10010700E5266480949140F0E5236430452270042D
:100117007F0180027F00E5256430452470047E015D
:1001270080027E00EE5FFFE5216430452070047E8B
:100137000180027E00EE5FFFE51F6430451E60040C
:100147007E0180027E00EE5F6057752601E5262559
:10015700E0241CF808E6FF12055B1526C3E52664B4
:1001670080948050E87F2012055BE4F52612055441
:100177000526C3E5266480948440F2E4F5267F20B3
:1001870012055B0526C3E5266480948A40F0E4F5F2
:10019700267F1012057C0526C3E5266480949140CE
:1001A700F0E5236430452270047F0180027F00E57B
:1001B700256430452470047E0180027E00EE5FFFD7
:1001C700E5216430452060047E0180027E00EE5FF9
:1001D7006057752602E52625E0241CF808E6FF127D
:1001E700055B1526C3E5266480948050E87F2012BE
:1001F700055BE4F5261205540526C3E526648094BD
:100207008440F2E4F5267F2012055B0526C3E52628
:100217006480948940F0E4F5267F1012057C05265A
:10022700C3E5266480949140F0E525643045247049
:10023700047F0180027F00E5236430452260047E4D
:100247000180027E00EE5F6057752603E52625E0F4
:10025700241CF808E6FF12055B1526C3E526648013
:10026700948050E87F2012055BE4F52612055405BB
:1002770026C3E5266480948440F2E4F5267F2012A5
:10028700055B0526C3E5266480948840F0E4F526DF
:100297007F1012057C0526C3E5266480949140F003
:1002A700E525643045246057752604E52625E024B6
:1002B7001CF808E6FF12055B1526C3E52664809443
:1002C7008050E87F2012055BE4F5261205540526C9
:1002D700C3E5266480948440F2E4F5267F20120566
:1002E7005B0526C3E5266480948740F0E4F5267F06
:0F02F7001012057C0526C3E5266480949140F023
:0103060022D4
:0300000002059C5A
:0C059C00787FE4F6D8FD75812B02045234
:10030700E709F608DFFA8046E709F208DFFA803ED8
:1003170088828C83E709F0A3DFFA8032E309F608C5
:10032700DFFA8078E309F208DFFA807088828C832D
:10033700E309F0A3DFFA806489828A83E0A3F608E1
:10034700DFFA805889828A83E0A3F208DFFA804CBB
:1003570080D280FA80C680D4806980F28033801092
:1003670080A680EA809A80A880DA80E280CA8033FB
:1003770089828A83ECFAE493A3C8C582C8CCC58373
:10038700CCF0A3C8C582C8CCC583CCDFE9DEE78043
:100397000D89828A83E493A3F608DFF9ECFAA9F0C2
:1003A700EDFB2289828A83ECFAE0A3C8C582C8CC18
:1003B700C583CCF0A3C8C582C8CCC583CCDFEADE31
:1003C700E880DB89828A83E493A3F208DFF980CC93
:1003D70088F0EF60010E4E60C388F0ED2402B4048C
:1003E7000050B9F582EB2402B4040050AF23234533
:0603F700822390035773FE
:1003FD00BC000BBE0029EF8DF084FFADF022E4CCE4
:10040D00F875F008EF2FFFEE33FEEC33FCEE9DECAC
:10041D00984005FCEE9DFE0FD5F0E9E4CEFD22EDF2
:10042D00F8F5F0EE8420D21CFEADF075F008EF2F3C
:10043D00FFED33FD4007985006D5F0F222C398FD2D
:05044D000FD5F0EA22CA
:00000001FF
