:03000300015A009F
:03000B00020007E9
:03000700055A3265
:100B2A00120CEF758915758BB0758D3C75A882D23C
:100B3A008CE4FFD28E308FFDC28EC28FE4FDFC00A2
:100B4A00000000000000000000000000000000009B
:100B5A00000000000000000000000000000000008B
:100B6A0000000DBD00010CED641A4C70D2000000AB
:100B7A00000000000FBF0FBBAF5AE4FCFDFEFBFAFA
:100B8A007901F81209EBA804A905AA06AB07AF8CEC
:100B9A00EFFEE4FCFD2BFBEA3EFAED39F9EC38F8FE
:100BAA00AF8AE4FEEB2FF50BEE3AF50AED39F509BB
:100BBA00EC38F508C28CE4F58CF58AAF0BAE0AADB9
:100BCA0009AC0812000E7F80120D19E4F55A020BC7
:010BDA0039E1
:08000E008F0F8E0E8D0D8C0C7E
:10001600E47B0AFAF9F8120C678F138E128D118C95
:1000260010E47B0AFAF9F8AF0FAE0EAD0DAC0C1268
:100036000C67AC00AD01AE02EB2430F533E43EF5BF
:1000460032E43DF531E43CF530E47B0AFAF9F8AFE9
:1000560013AE12AD11AC10120C67AC00AD01AE02BE
:10006600EB2430F537E43EF536E43DF535E43CF572
:1000760034E47B0AFAF9F8AF13AE12AD11AC1012E4
:100086000C678F178E168D158C14E47B0AFAF9F817
:10009600120C67AC00AD01AE02EB2430F53BE43E3A
:1000A600F53AE43DF539E43CF538E47B0AFAF9F82B
:1000B600AF17AE16AD15AC14120C678F1B8E1A8DCA
:1000C600198C18E47B0AFAF9F8120C67AC00AD013A
:1000D600AE02EB2430F53FE43EF53EE43DF53DE46B
:1000E6003CF53CE47B0AFAF9F8AF1BAE1AAD19AC45
:1000F60018120C678F1F8E1E8D1D8C1CE47B0AFA4E
:10010600F9F8120C67AC00AD01AE02EB2430F543F2
:10011600E43EF542E43DF541E43CF540E47B0AFA71
:10012600F9F8AF1FAE1EAD1DAC1C120C678F238EE7
:10013600228D218C20E47B0AFAF9F8120C67AC00B8
:10014600AD01AE02EB2430F547E43EF546E43DF55D
:1001560045E43CF544E47B0AFAF9F8AF23AE22AD58
:1001660021AC20120C678F278E268D258C24E47BEC
:100176000AFAF9F8120C67AC00AD01AE02EB2430B6
:10018600F54BE43EF54AE43DF549E43CF548E47BAD
:100196000AFAF9F8AF27AE26AD25AC24120C678F04
:1001A6002B8E2A8D298C28E47B0AFAF9F8120C6723
:1001B600AC00AD01AE02EB2430F54FE43EF54EE463
:1001C6003DF54DE43CF54CE47B0AFAF9F8AF2BAE6D
:1001D6002AAD29AC28120C678F2F8E2E8D2D8C2CD4
:1001E600E47B0AFAF9F8120C67AC00AD01AE02EB3B
:1001F6002430F553E43EF552E43DF551E43CF55028
:10020600E47B0AFAF9F8AF2FAE2EAD2DAC2C120C0A
:1002160067EF2430F557E43EF556E43DF555E43CEA
:10022600F554E47F30FEFDFCAB53AA52A951A85009
:10023600C3120A3A70067F01C00780047F00C00718
:10024600E47F30FEFDFCAB57AA56A955A854C3124D
:100256000A3A70047E0180027E00D0E05EFFC0078D
:10026600E47F30FEFDFCAB4FAA4EA94DA84CC3124D
:100276000A3A70047E0180027E00D0E05EFFC0076D
:10028600E47F30FEFDFCAB4BAA4AA949A848C3123D
:100296000A3A70047E0180027E00D0E05EFFAB4722
:1002A600AA46A945A844E8494A4B70047E01800243
:1002B6007E00EE5FFFC007E47F30FEFDFCAB43AA85
:1002C60042A941A840C3120A3A70047E0180027E08
:1002D60000D0E05EFFC007E47F30FEFDFCAB3FAA26
:1002E6003EA93DA83CC3120A3A70047E0180027EF4
:1002F60000D0E05EFFC007E47F30FEFDFCAB3BAA0A
:100306003AA939A838C3120A3A70047E0180027EDF
:1003160000D0E05EFFC007E47F30FEFDFCAB37AAED
:1003260036A935A834C3120A3A70047E0180027ECB
:1003360000D0E05E6018AF33120CDFE4F5587F2082
:10034600120CDF0558C3E5586480948940F0E47FB9
:1003560030FEFDFCAB53AA52A951A850C3120A3A6B
:1003660070067F01C00780047F00C007E47F30FE6F
:10037600FDFCAB57AA56A955A854C3120A3A7004F5
:100386007E0180027E00D0E05EFFC007E47F30FE83
:10039600FDFCAB4FAA4EA94DA84CC3120A3A7004F5
:1003A6007E0180027E00D0E05EFFC007E47F30FE63
:1003B600FDFCAB4BAA4AA949A848C3120A3A7004E5
:1003C6007E0180027E00D0E05EFFC007E47F30FE43
:1003D600FDFCAB47AA46A945A844C3120A3A7004D5
:1003E6007E0180027E00D0E05EFFC007E47F30FE23
:1003F600FDFCAB43AA42A941A840C3120A3A7004C5
:100406007E0180027E00D0E05EFFC007E47F30FE02
:10041600FDFCAB3FAA3EA93DA83CC3120A3A7004B4
:100426007E0180027E00D0E05EFFC007E47F30FEE2
:10043600FDFCAB3BAA3AA939A838C3120A3A7004A4
:100446007E0180027E00D0E05EFFAB37AA36A9357A
:10045600A834E8494A4B60047E0180027E00EE5FC4
:100466006024755801120CD31558C3E5586480945E
:100476008050F2E4F5587F20120CDF0558C3E5588A
:100486006480948840F0E47F30FEFDFCAB53AA52B2
:10049600A951A850C3120A3A70067F01C00780040A
:1004A6007F00C007E47F30FEFDFCAB57AA56A95576
:1004B600A854C3120A3A70047E0180027E00D0E07E
:1004C6005EFFC007E47F30FEFDFCAB4FAA4EA94D90
:1004D600A84CC3120A3A70047E0180027E00D0E066
:1004E6005EFFC007E47F30FEFDFCAB4BAA4AA9497C
:1004F600A848C3120A3A70047E0180027E00D0E04A
:100506005EFFC007E47F30FEFDFCAB47AA46A94567
:10051600A844C3120A3A70047E0180027E00D0E02D
:100526005EFFC007E47F30FEFDFCAB43AA42A94153
:10053600A840C3120A3A70047E0180027E00D0E011
:100546005EFFC007E47F30FEFDFCAB3FAA3EA93D3F
:10055600A83CC3120A3A70047E0180027E00D0E0F5
:100566005EFFC007E47F30FEFDFCAB3BAA3AA9392B
:10057600A838C3120A3A60047E0180027E00D0E0E9
:100586005E6024755802120CD31558C3E558648072
:10059600948050F2E4F5587F20120CDF0558C3E52D
:1005A600586480948740F0E47F30FEFDFCAB53AA8C
:1005B60052A951A850C3120A3A70067F01C007809B
:1005C600047F00C007E47F30FEFDFCAB57AA56A9A6
:1005D60055A854C3120A3A70047E0180027E00D0E8
:1005E600E05EFFC007E47F30FEFDFCAB4FAA4EA9DC
:1005F6004DA84CC3120A3A70047E0180027E00D0D8
:10060600E05EFFC007E47F30FEFDFCAB4BAA4AA9C3
:1006160049A848C3120A3A70047E0180027E00D0BF
:10062600E05EFFC007E47F30FEFDFCAB47AA46A9AB
:1006360045A844C3120A3A70047E0180027E00D0A7
:10064600E05EFFC007E47F30FEFDFCAB43AA42A993
:1006560041A840C3120A3A70047E0180027E00D08F
:10066600E05EFFC007E47F30FEFDFCAB3FAA3EA97B
:100676003DA83CC3120A3A60047E0180027E00D087
:10068600E05E6024755803120CD31558C3E5586410
:1006960080948050F2E4F5587F20120CDF0558C391
:1006A600E5586480948640F0E47F30FEFDFCAB5351
:1006B600AA52A951A850C3120A3A70067F01C00770
:1006C60080047F00C007E47F30FEFDFCAB57AA56CE
:1006D600A955A854C3120A3A70047E0180027E000E
:1006E600D0E05EFFC007E47F30FEFDFCAB4FAA4EB4
:1006F600A94DA84CC3120A3A70047E0180027E00FE
:10070600D0E05EFFC007E47F30FEFDFCAB4BAA4A9B
:10071600A949A848C3120A3A70047E0180027E00E5
:10072600D0E05EFFC007E47F30FEFDFCAB47AA4683
:10073600A945A844C3120A3A70047E0180027E00CD
:10074600D0E05EFFC007E47F30FEFDFCAB43AA426B
:10075600A941A840C3120A3A60047E0180027E00C5
:10076600D0E05E6024755804120CD31558C3E558C2
:100776006480948050F2E4F5587F20120CDF05580F
:10078600C3E5586480948540F0E47F30FEFDFCAB01
:1007960053AA52A951A850C3120A3A70067F01C043
:1007A6000780047F00C007E47F30FEFDFCAB57AA3C
:1007B60056A955A854C3120A3A70047E0180027ED7
:1007C60000D0E05EFFC007E47F30FEFDFCAB4FAA21
:1007D6004EA94DA84CC3120A3A70047E0180027ECF
:1007E60000D0E05EFFC007E47F30FEFDFCAB4BAA05
:1007F6004AA949A848C3120A3A70047E0180027EBB
:1008060000D0E05EFFC007E47F30FEFDFCAB47AAE8
:1008160046A945A844C3120A3A60047E0180027EB6
:1008260000D0E05E6024755805120CD31558C3E558
:10083600586480948050F2E4F5587F20120CDF054E
:1008460058C3E5586480948440F0E47F30FEFDFC94
:10085600AB53AA52A951A850C3120A3A70067F0197
:10086600C00780047F00C007E47F30FEFDFCAB5765
:10087600AA56A955A854C3120A3A70047E018002EA
:100886007E00D0E05EFFC007E47F30FEFDFCAB4F8C
:10089600AA4EA94DA84CC3120A3A70047E018002E2
:1008A6007E00D0E05EFFC007E47F30FEFDFCAB4B70
:1008B600AA4AA949A848C3120A3A60047E018002DE
:1008C6007E00D0E05E6024755806120CD31558C31E
:1008D600E5586480948050F2E4F5587F20120CDFCE
:1008E6000558C3E5586480948340F0E47F30FEFDEC
:1008F600FCAB53AA52A951A850C3120A3A70067FFC
:1009060001C00780047F00C007E47F30FEFDFCAB1A
:1009160057AA56A955A854C3120A3A70047E0180F4
:10092600027E00D0E05EFFC007E47F30FEFDFCAB38
:100936004FAA4EA94DA84CC3120A3A60047E018004
:10094600027E00D0E05E6024755807120CD315585D
:10095600C3E5586480948050F2E4F5587F20120C69
:10096600DF0558C3E5586480948240F0E47F30FE8A
:10097600FDFCAB57AA56A955A854C3120A3A7006ED
:100986007F01C00780047F00C007E47F30FEFDFCC6
:10099600AB53AA52A951A850C3120A3A60047E0169
:1009A60080027E00D0E05E6016755808120CD315E2
:1009B60058C3E5586480948050F27F20120CDFE41F
:1009C6007F30FEFDFCAB57AA56A955A854C3120AA0
:1009D6003A6011755809120CD31558C3E55864804E
:0409E600948050F2B7
:0109EA0022EA
:100CEF007F38120D197F0C120D197F01120D197F0C
:090CFF0080120D197F06020D1987
:080CAB00C2A1D2A27F017E006C
:100CB300E4FDFCC3ED9FEC9E5015E4FBFA0BBB0077
:0F0CC300010ABA04F8BBFBF50DBD00010C80E47B
:010CD20022FF
:100D19008F0C120D08850C90C2A0120CABC2A22236
:0C0CD300E55825E025E02430F8120A5016
:100CDF008F59120D08855990D2A0120CABC2A222C7
:100D0800D297C2A0D2A1C2A2120CAFD2A22097F64B
:010D180022B8
:03000000020BDB15
:0C0BDB00787FE4F6D8FD75815A020C22E8
:1009EB00E88FF0A4CC8BF0A42CFCE98EF0A42CFCAB
:1009FB008AF0EDA42CFCEA8EF0A4CDA8F08BF0A429
:100A0B002DCC3825F0FDE98FF0A42CCD35F0FCEB87
:100A1B008EF0A4FEA9F0EB8FF0A4CFC5F02ECD394C
:0F0A2B00FEE43CFCEAA42DCE35F0FDE43CFC22B9
:100C6700C2D5E830E70FB2D5E4C39BFBE49AFAE4B8
:100C770099F9E498F8EC30E717B2D5120C9D120AEF
:100C870098E4C39BFBE49AFAE499F9E498F88003A3
:100C9700120A9830D50DE4C39FFFE49EFEE49DFD44
:040CA700E49CFC22AB
:100A3A00EB9FF5F0EA9E42F0E99D42F0EC6480C833
:060A4A0064809845F022D3
:0C0A5000E6FC08E6FD08E6FE08E6FF22D2
:100BE700020B2AE493A3F8E493A34003F68001F2EF
:100BF70008DFF48029E493A3F85407240CC8C3330F
:100C0700C4540F4420C8834004F456800146F6DFDD
:100C1700E4800B0102040810204080900003E47E6A
:100C2700019360BCA3FF543F30E509541FFEE493D2
:100C3700A360010ECF54C025E060A840B8E493A399
:100C4700FAE493A3F8E493A3C8C582C8CAC583CAC4
:100C5700F0A3C8C582C8CAC583CADFE9DEE780BE7C
:0100060000F9
:100A5C0075F008758200EF2FFFEE33FECD33CDCC51
:100A6C0033CCC58233C5829BED9AEC99E5829840D4
:100A7C000CF582EE9BFEED9AFDEC99FC0FD5F0D6B1
:100A8C00E4CEFBE4CDFAE4CCF9A88222B800C1B9DB
:100A9C000059BA002DEC8BF084CFCECDFCE5F0CB19
:100AAC00F97818EF2FFFEE33FEED33FDEC33FCEB52
:100ABC0033FB10D703994004EB99FB0FD8E5E4F90D
:100ACC00FA227818EF2FFFEE33FEED33FDEC33FCFA
:100ADC00C933C910D7059BE99A4007EC9BFCE99AEE
:100AEC00F90FD8E0E4C9FAE4CCFB2275F010EF2F33
:100AFC00FFEE33FEED33FDCC33CCC833C810D70733
:100B0C009BEC9AE899400AED9BFDEC9AFCE899F86D
:0E0B1C000FD5F0DAE4CDFBE4CCFAE4C8F92200
:00000001FF
